:1000000010C01DC024C31BC01AC019C021C317C013
:1000100016C015C014C013C012C011C010C00FC04C
:100020000EC011241FBECFEDCDBF20E0A0E6B0E092
:1000300001C01D92AE36B207E1F724D19EC3E0CFD6
:10004000D79AB99ABA9AB89AC09883E08A95F1F784
:100050000000C09A089598E087FF15C0DF9A23E05A
:100060002A95F1F70000C19A23E02A95F1F70000E4
:10007000C198880F915081F7C29A83E08A95F1F771
:100080000000C2980895DF98EACFA4E0B0E0EAE467
:10009000F0E03AC389839A831B821C8207E010E058
:1000A000C8012B813C81821B21E001C0220F8A956F
:1000B000EAF7822F30EF83276B817C8140E050E0AC
:1000C00090E029813A81062E02C0369527950A9440
:1000D000E2F72170042E01C0220F0A94EAF7922B56
:1000E0004F5F5F4F6C5F7F4F4430510551F7892B55
:1000F000B2DF81E28A95F1F700002B813C812F5F0E
:100100003F4F2B833C832430310551F62496E4E0A5
:1001100012C3F82FE62FC90164EF71E0C0D2A62FF9
:10012000A170B0E060FD02C0411541F18F2F6AE07F
:10013000AAD2382F3295307F20E0109711F4413049
:1001400041F08F2F6AE09FD2392B109711F4423083
:1001500079F08E2F98D290E082959295907F982793
:10016000807F9827282F392BAB2B11F4433019F0BF
:100170008E2F89D2292BC90188DF089520E030E035
:10018000E0CF98E080FF09C0DA9A0000DB9A000017
:10019000DB9886959150B1F70895DA98F6CFA1E0F3
:1001A000B0E0E4EDF0E0B2C26983D99A0000E9DF83
:1001B0008981E7DF0000D9982196E2E0BEC2A3E082
:1001C000B0E0E4EEF0E0A2C289836A834B8360E092
:1001D0008EE8E5DF8B816AE056D28295807F892B9D
:1001E000682F6F7780E8DBDF8A816AE04CD28295E6
:1001F000807F682F692B82E8D2DF89816AE043D251
:100200008295807F682F692B84E8C9DF60E88EE8DB
:10021000C6DF2396E2E091C2D99A0000B2DFDA98F5
:10022000D29880E098E08695CA998068DB9A0000B1
:10023000DB989150C1F7D29A0000D998089581E8CF
:10024000EBDF982F82958F706AE014D29F70890F30
:100250008F7780936B0083E8DFDF982F82958F7014
:100260006AE008D29F70890F80936C0085E8D4DF24
:10027000982F82958F706AE0FDD19F70890F8093CF
:100280006D00089514BE0FB6F894A89581B58861E5
:1002900081BD11BC0FBE379880B1876080B9479A85
:1002A000D098909A8BB780618BBFCADED19AD39ACF
:1002B000D29AD998DB981FBC1EBC87EE93E09BBDF9
:1002C0008ABD8EB588608EBD8EB581608EBD619A07
:1002D00088E19FE00FB6F894A89581BD0FBE91BD4F
:1002E000789480E090E02FD28F3F89F484E180936E
:1002F0006D0084E080936C0082E280936B0042E2A8
:1003000064E084E15CDF60E080E090E024D2A895C6
:100310002FE38DE093E0215080409040E1F700C052
:100320000000FF24F39403E010E0A8958091690099
:1003300090916A002091610030916200C89B85C055
:100340002115310589F49C0180936100909362002E
:1003500010926000821B930B8132934048F081E041
:1003600080936000C2E005C040916000411591F3A8
:10037000C0E0D0E08091670090916800892B39F54A
:10038000C230D10521F51092650010926600F092FE
:1003900067001092680080916D00809364008091E6
:1003A0006C00809363008FE056DE9FE926E881E0D1
:1003B000915020408040E1F700C0000080EF4BDE0C
:1003C00083E294EF0197F1F700C00000C0E0809154
:1003D000670090916800019708F44BC009F0A5CF21
:1003E00080916500909166008230910509F4D8C033
:1003F00008F0A0C0892B09F0A8C0C130D10599F43C
:10040000809164006AE03FD1292F8F5F90E0B801AE
:100410005AD18230910509F094C0243008F491C07B
:1004200087E1809364002091690030916A0040E088
:1004300060916300809164006CDE229709F07DC0BA
:10044000F09265001092660078C02115310509F41C
:100450008FCF1092610010926200409160004111B4
:1004600087CF821B930B21E0C39708F420E0C22FB3
:1004700080CF8091690090916A008031974228F581
:100480008091690090916A0068EE73E008D1892B31
:1004900009F4D5DE80916D006AE0F5D0382F3295F1
:1004A000307F392B80916C006AE0EDD0292F90E0ED
:1004B00082959295907F9827807F9827822B932B07
:1004C000E4DD88EC8A95F1F730CF0FB6F894A89563
:1004D00081B5886181BD11BC0FBE8FEFBCDDC198B5
:1004E000C298DF98C09AD79AB99ABA9AB89A85B73B
:1004F000877E806185BF85B7806285BF8AB780614E
:100500008ABF889585B78F7D85BF9ADD8FE098E19A
:100510000FB6F894A89591BD0FBE81BD90DE87E817
:1005200093E10197F1F700C0000010926A00109269
:100530006900FBCE039709F457C098EC9A95F1F740
:10054000F4CE6AE097D0820F6CCFC130D105B1F400
:10055000809164006AE097D0282F9F5F892F90E0F8
:1005600070E0B1D0982F223019F4843008F090E078
:10057000822F6AE07FD0890F809364002091690008
:1005800030916A0041E06091630080916400C1DDB8
:10059000C230D10591F6C093650010926600CDCFB0
:1005A000C130D10579F4809163006AE06CD0292FC5
:1005B0008F5F90E066E070E086D06AE05BD0820FEB
:1005C000809363002091690030916A0042E060915D
:1005D0006300809164009DDD229709F0AECF009307
:1005E000650010936600A9CFC130D10571F4209148
:1005F0006300822F6AE047D081E0890F291B90E0D9
:1006000070E061D0280F2093630020916900309141
:100610006A0043E060916300809164007ADD229774
:1006200009F08BCF40E06091630080916400C7DDEA
:100630008091640080936D008091630080936C00D2
:1006400010926B00109267001092680076CF189598
:100650008F938FB78F939F938091690090916A00D9
:10066000019690936A00809369009F918F918FBF4C
:100670008F911895002480FD060E660F11F0869567
:10068000D1F7802D0895992778E0880F991F961744
:1006900008F0961B881F7A95C9F780950895AA1BC4
:1006A000BB1B51E107C0AA1FBB1FA617B70710F05D
:1006B000A61BB70B881F991F5A95A9F7809590958F
:1006C000BC01CD01089597FB072E16F4009406D0C7
:1006D00077FD08D0E4DF07FC05D03EF490958195C6
:1006E0009F4F0895709561957F4F08952F923F9287
:1006F0004F925F926F927F928F929F92AF92BF9232
:10070000CF92DF92EF92FF920F931F93CF93DF93DD
:10071000CDB7CA1BCDBFDD2709942A883988488800
:100720005F846E847D848C849B84AA84B984C8840D
:10073000DF80EE80FD800C811B81AA81D981CE0FE4
:10074000CDBFCA2F0895E199FECF1FBA8EBBE09AA4
:1007500099278DB30895262FE199FECF1FBA8EBB3E
:10076000E09A81500DB2021639F01CBA2DBB0FB6BB
:0E077000F894E29AE19A0FBE0895F894FFCF34
:00000001FF
