:1000000010C01DC023C31BC01AC019C020C317C015
:1000100016C015C014C013C012C011C010C00FC04C
:100020000EC011241FBECFEDCDBF20E0A0E6B0E092
:1000300001C01D92AE36B207E1F73AD183C3E0CFDB
:10004000D79AB99ABA9AB89AC09883E08A95F1F784
:100050000000C09A089598E087FF15C0DF9A23E05A
:100060002A95F1F70000C19A23E02A95F1F70000E4
:10007000C198880F9A9581F7C29A83E08A95F1F723
:100080000000C2980895DF98EACFA0E0B0E0EAE46B
:10009000F0E034C38C01C0E0D0E087E0E82EF12C22
:1000A000CC24C394D12C20EFB22EC7018C1B9D0B06
:1000B000960102C0220F331F8A95E2F7C9018B25F2
:1000C000BE0140E050E090E09801062E02C0369557
:1000D00027950A94E2F721703327042E01C0220FDE
:1000E0000A94EAF7922B4F5F5F4F6C5F7F4F44306B
:1000F000510551F7892BAFDF31E23A95F1F7000056
:100100002196C430D10589F6CDB7DD27E9E00DC3CE
:10011000F82FE62FC90164EF71E0C0D2A62FA170BD
:10012000BB2760FD02C0411559F18F2F6AE0AAD2AA
:10013000282F30E0322F22273295307F109711F48C
:10014000413041F08F2F6AE09DD2392B109711F486
:10015000423079F08E2F6AE095D290E054E0880F1B
:10016000991F5A95E1F7282B392BAB2B11F443300B
:1001700021F08E2F6AE086D2292BC90186DF0895EF
:1001800020E030E0DFCF20E030E090E0AC01022E54
:1001900002C0559547950A94E2F740FF0BC0DA9AE2
:1001A0000000DB9A0000DB982F5F3F4F28303105BD
:1001B00069F70895DA98F4CFCF93C62FD99A000043
:1001C000E2DF8C2FE0DF0000D998CF9108950F93E4
:1001D0001F93CF93DF93D82F162F042F60E08EE864
:1001E000EBDFCAE0802F6C2F4DD28295807F892B68
:1001F000682F6F7780E8E0DF812F6C2F43D28295E4
:10020000807F682F692B82E8D7DF8D2F6C2F3AD241
:100210008295807F682F692B84E8CEDF60E88EE8C6
:10022000CBDFDF91CF911F910F910895D99A0000F4
:10023000AADFDA98D29820E030E080E041E050E098
:10024000CA9B07C0BA01022E01C0660F0A94EAF7E2
:10025000862BDB9A0000DB982F5F3F4F283031055B
:1002600079F7D29A0000D998089581E8DFDF982FB6
:1002700082958F706AE0FDD19F70890F8F77809390
:100280006B0083E8D3DF982F82958F706AE0F1D1FD
:100290009F70890F80936C0085E8C8DF982F829546
:1002A0008F706AE0E6D19F70890F80936D0008958A
:1002B000379880B1876080B9479AD098909A8BB769
:1002C00080618BBFBDDED19AD39AD29AD998DB9840
:1002D0001FBC1EBC87EE93E09BBD8ABD8EB58860B7
:1002E0008EBD8EB581608EBD619A789481E18093D8
:1002F0006D008DE280936C0086E080936B0046E099
:100300006DE281E164DF2FEB87E299E021508040CC
:100310009040E1F700C0000099249394712C612C67
:100320008824839458EEC52E53E0D52E03E010E0C8
:1003300066E0A62EB12C7AE0E72EF12C80916900C0
:1003400090916A002091610030916200C89B89C041
:100350002115310599F49C0190936200809361000E
:1003600010926000821B930B8132934058F0809270
:10037000600082E0C82F90E0D92F06C04091600055
:10038000411581F3C72DD62D8091670090916800AB
:10039000892B41F5C230D10529F5109266001092E3
:1003A0006500909267001092680080916D008093C4
:1003B000640080916C00809363008FE04CDE8FE9D5
:1003C00096E821E0815090402040E1F700C0000015
:1003D00080EF41DE83E294EF0197F1F700C0000067
:1003E000C0E0D0E08091670090916800009709F428
:1003F0004EC0019709F0A2CF8091650090916600F0
:100400008230910509F4CBC008F093C0892B09F024
:100410009BC0C130D10599F4809164006AE032D16B
:10042000292F8F5F90E0B8014DD18230910509F0FE
:1004300087C0243008F484C087E180936400209151
:10044000690030916A0040E060916300809164002F
:100450005FDE229709F070C09092650010926600EE
:100460006BC02115310509F48DCF109262001092F6
:10047000610040916000411185CF821B930B21E008
:10048000C39708F420E0C22F20E0D22F7DCF8091C7
:10049000690090916A008031974230F5809169003F
:1004A00090916A00B601FAD0892B09F4DEDE409102
:1004B0006C0080916D006AE0E5D0282F30E0322F8B
:1004C00022273295307F392B842FDCD0292B90E0E6
:1004D00044E0880F991F4A95E1F7822B932BD5DDD5
:1004E00088EC8A95F1F72ACF8FEFB5DDC198C298D5
:1004F000DF98C09AD79AB99ABA9AB89A85B7877E80
:10050000806185BF85B7806285BF8AB780618ABFF9
:10051000889585B78F7D85BF93DDA7DE87E893E15A
:100520000197F1F700C0000010926A001092690074
:1005300005CF039709F456C098EC9A95F1F7FECED3
:100540006AE097D0820F79CFC130D105B1F48091A4
:1005500064006AE097D0282F9F5F892F90E0B70151
:10056000B1D0982F223019F4843008F090E0822F17
:100570006AE07FD0890F80936400209169003091F8
:100580006A0041E06091630080916400C1DDC23087
:10059000D10591F6D0936600C0936500CDCFC130F0
:1005A000D10571F4809163006AE06CD0292F8F5FD0
:1005B00090E0B50187D06AE05CD0820F8093630041
:1005C0002091690030916A0042E06091630080915F
:1005D00064009EDD229709F0AFCF10936600009370
:1005E0006500AACFC130D10579F420916300822F34
:1005F0006AE048D0392F81E0890F90E0B70162D0DE
:10060000231B280F209363002091690030916A001A
:1006100043E060916300809164007ADD229709F0E5
:100620008BCF40E06091630080916400D0DD8091C9
:10063000640080936D008091630080936C00109241
:100640006B00109268001092670076CF18958F9318
:100650008FB78F939F938091690090916A00019664
:1006600090936A00809369009F918F918FBF8F91C3
:100670001895002480FD060E660F11F08695D1F7BF
:10068000802D0895992778E0880F991F961708F014
:10069000961B881F7A95C9F780950895AA1BBB1BE6
:1006A00051E107C0AA1FBB1FA617B70710F0A61B72
:1006B000B70B881F991F5A95A9F780959095BC0193
:1006C000CD01089597FB072E16F4009406D077FD10
:1006D00008D0E4DF07FC05D03EF4909581959F4F4C
:1006E0000895709561957F4F08952F923F924F9294
:1006F0005F926F927F928F929F92AF92BF92CF92B2
:10070000DF92EF92FF920F931F93CF93DF93CDB7BA
:10071000CA1BCDBFDD2709942A88398848885F84A1
:100720006E847D848C849B84AA84B984C884DF8091
:10073000EE80FD800C811B81AA81D981CE0FCDBFB7
:08074000CA2F0895F894FFCFC1
:00000001FF
